:400000000040002011000000B5160000B516000010B501F06FFBC04610B512221A4B1A60302001F0B9FC194A194B1A600024194B1C60194B194A1A60194A1460194A1A608B
:40004000C0218900184A1160184A1A6080210901174A1160174A1A6082221206164B1A608022D202154B1A604222154B1A600132144B1A601449072001F0EAFB072001F06C
:40008000DBFB124B1C6010BD300010400600008004010B40040301400000014041FF00800003014040FF00800803014042FF00800C03014043FF008008010B4000010B4063
:4000C0004C01014028010140D91A00000C020B4070B572B600240FE04A486200131959000B00411889881A5AC31858880004104301F0A4FA0134E4B2022CEDD9002411E085
:40010000404EA2001319590071188D8AC88A000428430A8B498B09041143802201F094FA0134E4B2002CEBD03649203136482C3001F06AFA80225200344B1A80FF3A344B48
:400140001A70344A344B1A60344A354B1A60354A354B1A60AA22354B1A6099231B04344A13603449344A1160344A13603449354A11603549354A1160354A1360354A1360DF
:40018000C0221206344B1A6034490B783C22934314221343DBB20B70314A117816230B43DBB21370CE222F4B1A602F4A2F4B1A60FF222F4B1A602F4A2F4B1A60C0232F4ABA
:4001C00013602F4A136080222E4B1A602E4A2F4B1A6002222E4B1A602E4A2F4B1A6008222E4B1A60C32292022D4B1A60902212022C4B1A6030222C4B1A60FFF70DFF01F0A7
:4002000037FA70BD60EA010060EC010000600F4002600F40AA33003300000240222222220001024000EE0030000302400004024000500F400000B04A08500F4010500F40B3
:400240000000B4B418500F40555500001C500F4020500F4030500F4038500F4001700F4000700F4000000440B10DD8000800044000010440B66DDB0008010440000204401A
:400280001802044000030440809DC4000803044000040440716C0300080404400005044008050440080604400807044010B5064C2378002B07D1054B002B02D0044800E084
:4002C00000BF0123237010BD480100200000000080260000084B10B5002B03D00749084800E000BF07480368002B00D110BD064B002BFBD09847F9E7000000004C01002061
:4003000080260000C00000200000000001608280C380042101844184053A12B28284053B1BB2C3848283C38301234422835401328354002303630387C38643878387036478
:400340000C4A02650C4A8264C364036143618361002208E013000B33DB0000211950C31819710132D2B2032AF4D9044B186001207047C046EF8B5E00FFFFFF00640100209C
:4003800010B5044B1B683033020013CA13C303CA03C310BD64010020F0B54F4680B484B003900D00170099460A9E874201DA03970700A94502DA2B004D469946124B1B683D
:4003C00064229A5C920718D51C6E00964B463A0029000398A04700280FD110E00A4B1B681B683200290020009847013424B200E0039CA742F2DA01352DB2A945F8DA04B0F0
:4004000004BC9146F0BDC0466401002000B583B0084B1B6804215A5E06215B5E013B1BB2013A12B2009000210020FFF7B5FF03B000BDC04664010020014B1B689864704772
:4004400064010020014B1B68D864704764010020F0B55F4656464D464446F0B487B0040004911100029303005033DAB24C2A12D89300A94AD3589F4699240CE081240AE053
:400480009A2408E0842406E08E2404E0E62402E0F82400E09424A2B2119B5B899A4200D290E111988089824200D98BE18AB20192119A0620125E90B28246002800D181E19F
:4004C000C00883465046400702D001208446E34411980069002802D0E51A405D82468F4800686C25455DAD0700D4ACE0856E119B08229B5E019A94466344013B1BB2049831
:4005000002005244013A12B2A8478046119B1B79002B3DD1119B5B89E41A119B08229B5E63435A46534300220192524603920700119A924625E05A1C914652461268D65CBB
:4005400000240BE0F30702D50298B84701E01098B8477608013DADB20134A4B2072C01D8002DEFD1434601339BB298464B4602E0039D00229046D845DDD3019A013292B209
:40058000019252460821525E01999142F0DB19E1012B00D016E1119B5B89E41A119B08229B5E5C43119B06229B5E634300220392029D109E119A91463EE05A1C0192494667
:4005C0000968CF5CFF210B002B407B430A00324080204000C01B42439B181B0A0B40FF2212022900114079438B463100114041435944090A11400B43FF22120429001140EA
:4006000079438C463100114048436044000A024018001043C0470134A4B2019B00E000245445CAD34A460621525E5146521A9B18039A013292B203924A460821525E039991
:400640009142ECDBBEE01199097900294FD1E41A119B08229B5E63435A4653430022914652460592119A92463BE06A46168A059D002290462BE05A1C039252461268D75C19
:4006800000241BE0FB0709D5244B1B681B686A460421515E30B2029A984708E01F4B1B681B686A460421515E30B2109A98477F080136B6B2013DADB20134A4B2072C01D844
:4006C000002DDFD1434601339BB29846039BD845D1D3019A013292B201924A46013292B2914652460821525E9145BEDB6AE0012968D1E41A119B08215B5E634353430022DC
:400700009046029D109E119A914656E06A46178A0024029741E0C04684260000640100205A1C039249460968CF5CFF2213002B40190079431300334080204000C01B434309
:40074000CB181B0A1340FF2212022900114079438B463100114041435944090A0A401343FF2109042A000A407A4337000F4078431218120A0A401A43164B1B681B686946EA
:400780000420095E0298834600B298475F460137B9B202910134A4B2039B5445C0D34A460621525E5146521A9B18019A013292B201924246013292B290464A460821525E8A
:4007C0009045A3DB07B03CBC90469946A246AB46F0BDC0466401002010B582B0044C246830340194049C0094FFF732FE02B010BD64010020F0B54F4680B484B003900D00C5
:400800001700060036E0013783B21E4A1468628F93422FD3A18F8B422CD80A2802D10423E65E27E0236C002B03D0821A9B5C994603E03622A35EDBB299464B46F21804218D
:40084000635E013B9A4207DD3823E25E4523E356D3185D192DB2039EA36CE26C00922A003100FFF7B9FF074B1A684423D3564B449B191EB238780028C5D104B004BC914676
:40088000F0BDC04664010020F0B587B005900C0017000493060035E0013782B21C4B1B68598F8A422ED39D8FAA422BD80A2802D104269E5F26E01A6C002A02D0411A555CD4
:4008C00002E036215A5ED5B27219039204215A5E013A0399914207DD38215A5E45215B56D3181C1924B2059E0C9B0093049B22003100FFF771FF064B1A684423D356EB183C
:400900009B191EB238780028C6D107B0F0BDC04664010020032807D8044B1B680B30C000C1501818032303717047C0466401002010B5642000F09EFF00240CE0002001F0EA
:400940001DF9322000F096FF012001F017F9322000F090FF0134042CF0DD0121002001F03FF90A2000F086FF0A2000F083FF0121002001F035F90A2000F07CFF0A2000F0AF
:4009800079FF0121002001F02BF90A2000F072FF0A2000F06FFFE021002001F021F90121012001F01DF9322000F064FFE021002001F016F90321012001F012F9322000F096
:4009C00059FF0121002001F00BF90A2000F052FF322000F04FFFB021002001F001F90821012001F0FDF88021012001F0F9F80121012001F0F5F8DF21012001F0F1F801217F
:400A0000012001F0EDF80F21012001F0E9F80021012001F0E5F8F021002001F0E1F80021012001F0DDF83A21002001F0D9F86021012001F0D5F8E621002001F0D1F80121E9
:400A4000012001F0CDF84521012001F0C9F84721012001F0C5F8B421002001F0C1F80221012001F0BDF80D21012001F0B9F80021012001F0B5F82B21012001F0B1F8282185
:400A8000012001F0ADF80021012001F0A9F80021012001F0A5F80021012001F0A1F8B621002001F09DF80121012001F099F81D21012001F095F80021012001F091F80C2107
:400AC000012001F08DF80921012001F089F80021012001F085F80021012001F081F82A21002001F07DF80021012001F079F80021012001F075F80121012001F071F8DF2194
:400B0000012001F06DF82B21002001F069F80021012001F065F80021012001F061F80121012001F05DF80F21012001F059F81321002001F055F83821002001F051F82921B9
:400B4000002001F04DF888235B00F022520008490848FFF7DBFB08490120FFF7DBFE07490020FFF7D7FE06490320FFF7D3FE10BDD10B0000D4010020190C0000C10C000003
:400B8000310D000070B582B016001D00030A01AC237060700B0AA370E1702A21002001F01FF804222100012001F02AF8330A237066702B0AA370E5702B21002001F010F841
:400BC00004222100012001F01BF802B070BDC04610B582B0140C01AB1C70140A5C709A7082B2E023FF339A4214D8002912DB1023FF3399420EDC441C4B1C0A002100FFF708
:400C0000C1FF2C21002000F0EBFF032201A9012000F0F6FF02B010BDF0B585B00C00019115001E000A9A110C03AB1970110A59709A7087B2E023FF339F422ED8002C2FDB3D
:400C40001023FF339C422EDCABB2E022FF3293422CD8002E2DDB1023FF339E422CDC330022002900FFF78EFF2C21002000F0B8FF0EE06B469C8806E0032203A9012000F09B
:400C8000BFFF0134A4B2731C9C42F5DB0137BFB26B1C9F42EDDB002010E0012040420DE0012040420AE00120404207E00120404204E00120404201E00120404205B0F0BD0E
:400CC00030B583B085B2E024FF34A5421AD800291BDB1024FF34A1421ADC94B2E025FF35AC4218D8002B19DB1024FF34A34218DC904201D0994217D1069C0094FFF78CFF5D
:400D0000002013E00120404210E0012040420DE0012040420AE00120404207E00120404204E00120404201E00120404203B030BDF8B5150006AA10CA168887B2E022FF32C2
:400D4000974221D8002922DB1022FF32914221DCAAB2E027FF37BA421FD8002B20DB1022FF3293421FDC0A002900FFF70BFF2C21002000F035FF7200B21892B221000120DD
:400D800000F03EFF002010E0012040420DE0012040420AE00120404207E00120404204E00120404201E001204042F8BDF0B583B01948FFF72BFBFF231B0400930A230A226A
:400DC00000210020FFF7E8FA88277F0083256D00FF2300933B000A2229000020FFF7DCFAF0267600EB246400FF231B0200930A23320000212000FFF7CFFA084B00933B0015
:400E0000320029002000FFF7C7FA9620400000F031FD03B0F0BDC046FFFFFF0000FFFF0010B50020FFF7F2FA104A0A214420FFF7E1FC0F4A0A212A20FF30FFF7DBFC0D4A67
:400E4000C3210A20FFF7D6FC0B4AF0210A20FFF7D1FC0A4AC3215420FF30FFF7CBFC084AF02196204000FFF7C5FC10BD68E9010074E9010080E9010088E9010090E90100CE
:400E800098E9010030B585B004003848FFF778FA642C19D1364B1A68FF231B029A4209D01C000093AA23D22223211E20FFF774FA2F4B1C60FF231B02009300232D4A502110
:400EC0003720FFF7E1FC4BE022002B4903A800F0B3FF092C28D94B2C05D8322C06D8192C06D9264C06E0FF24240203E0244C01E0FF24240403AB25229A700022DA701C4BDE
:400F00001B689C4208D00094AA23D23223211E20FFF742FA164B1C600094002303AA50214620FFF7B1FC1BE003AC252363700023A3700093AA33D22223211E20FFF72CFAA7
:400F4000FF252D040095AA23D22223211E20FFF723FA00950023220050215A20FFF794FC0848FFF70DFA05B030BDC046A828000050020020A4E90100ACE9010000A5FF00E7
:400F800000FFFF00E4280000F0B585B006002C2819D931281AD936281AD9E1277F008724640000230093AA333A0023212000FFF7F3F9FF252D040095AA233A002321200066
:400FC000FFF7EAF905E0FF252D0202E0154D00E0154D164B1B689D420AD00095AA23E1225200232187204000FFF7D6F90F4B1D600F48FFF7C5F903AC32000E49200000F0EC
:401000001BFF4323A3700023E3700095220050219B204000FFF738FC0748FFF7B1F905B0F0BDC04600FFFF0000A5FF0060020020A8280000ACE90100E428000030B583B055
:40104000040043B2002B00DBD4E07F231C40072C00D90FE1A400884B1B599F46874B1A68874B9A4209D01C000093D723F022B9215F20FFF791F9814B1C60814B00930023BA
:40108000804AC3216420FFF7FFFBF3E07B4B1A68FF231B049A4209D01C000093D723F022B9215F20FFF778F9744B1C60FF231B0400930023744AC3216420FFF7E5FBD9E09B
:4010C0006E4B1A68FF231B049A4209D01C000093D723F022B9215F20FFF75EF9674B1C60FF231B0400930023684AC3216420FFF7CBFBBFE0614B1A68FF231B049A4209D0A0
:401100001C000093D723F022B9215F20FFF744F95A4B1C60FF231B04009300235C4AC3216420FFF7B1FBA5E0544B1A68FF231B049A4209D01C000093D723F022B9215F20F0
:40114000FFF72AF94D4B1C60FF231B0400930023504AC3216420FFF797FB8BE0474B1A68FF231B049A4209D01C000093D723F022B9215F20FFF710F9404B1C60FF231B04F1
:4011800000930023444AC3216420FFF77DFB71E03A4B1A683A4B9A4209D01C000093D723F022B9215F20FFF7F7F8344B1C60344B00930023394AC3216420FFF765FB59E0E0
:4011C0002E4B1A68FF231B049A4209D01C000093D723F022B9215F20FFF7DEF8274B1C60FF231B04009300232D4AC3216420FFF74BFB3FE0214B1A68FF231B029A4209D01D
:401200001D000093D723F022B9215F20FFF7C4F81A4B1D60012C10D0002C04D0022C16D0032C1ED026E0FF231B02009300231D4AC3216420FFF728FB1CE0FF231B02009316
:401240000023194AC3216420FFF71EFB12E0FF231B0200930023154AC3216420FFF714FB08E0FF231B0200930023114AC3216420FFF70AFB03B030BD48E9010058020020D7
:4012800000FFFF00B0E90100BCE90100C8E90100D4E90100E0E90100ECE90100F8E9010004EA010010EA01001CEA010028EA010034EA010030B585B0254B5843FA21C900D2
:4012C00000F0F0FC12300400224B984207D8224B984207D8214B984206D9214D06E0FF252D0203E01F4D01E0FF252D041E4B1B689D4209D0009582235B00B622E6215F2098
:40130000FFF74AF8184B1D602200184902A800F093FD174B9C4208D802AB9A78DA705A789A701A785A7020221A7002AAD37813719378D3702E239370283353710023937158
:401340000095F0216420FFF79FFA05B030BDC0465B0300007E0400004C0400001A04000000A5FF0000FFFF004C020020ACE90100E703000070B584B0050063281CD9FF262B
:4013800036020096D723EB225200B921CD204000FFF702F802AC2A001649200000F04CFD4323E3700023237100962200C321A020FF30FFF769FA1BE0FF2636020096D72343
:4013C000EB225200B921CD204000FEF7E5FF02AC2A000849200000F02FFD4323A3700023E37000962200C321D3204000FFF74CFA04B070BDACE9010070B584B005006328EF
:401400001DD9FF263602009682235B00EB225200E621CD204000FEF7BFFF02AC2A001749200000F009FD4323E3700023237100962200F021A020FF30FFF726FA1CE0FF26D0
:401440003602009682235B00EB225200E621CD204000FEF7A1FF02AC2A000849200000F0EBFC4323A3700023E37000962200F021D3204000FFF708FA04B070BDACE90100FC
:4014800010B5072852D88000294B1B589F46002000F07AF9002000F083F9002000F08CF944E0002000F070F9012000F079F9012000F082F93AE0002000F066F9012000F0D8
:4014C0006FF9002000F078F930E0012000F05CF9012000F065F9002000F06EF926E0012000F052F9002000F05BF9002000F064F91CE0012000F048F9002000F051F90120AB
:4015000000F05AF912E0002000F03EF9002000F047F9012000F050F908E0012000F034F9012000F03DF9012000F046F910BDC04640EA010070B50500002406E0E0B2FFF70E
:401540009FFF280000F096F90134072CF6DD70BD10B5012000F01EFB00F034FBFFF7E8F92648FEF70DFF0020FEF76CFF2448FEF763FFFFF71BFC62B6C820FFF7DBFFFFF754
:401580004FFC8020FFF75AFD1E4B5B68642B02D980221C4B1A721B4B5B899BB2002B07D0184B1B7A002B03D0164B80221A725B89144C207BC0B2FFF765FC607BC0B2FFF7BF
:4015C000E3FC207AC0B2FFF739FD0020FFF772FEE08980B2FFF7CEFE208A80B2FFF70CFF237A002BD0D0012000F0E6F8012000F0D7F8012000F0C8F8C6E7C046E42800004D
:40160000FFFFFF0070010020F0B50025002711E0BB00C658F3B2FF22964308E06A008A181478A419527822700135013BDBB2002BF4D10137082FEBD9F0BDC04610B50A0085
:40164000002100F0F0FB10BD10B500F0E3FB10BD064B1B68002803D080221206134301E05B005B08014A13607047C04680033A4010B50323094A1360094A1360802212061A
:40168000084B1A60C023084A1360084A13600022074B1A600120FFF7DBFF10BD300030403000314000003A4000033A4040033A40000E3F4010B500F081FB03680C2B00D11E
:4016C000FEE7FEE710B50300084A1068C318084A9A1A802A02DC054A136005E000F06EFB0C2303600120404210BDC046C40000206802002070B50F4E0F4D13E029686B687A
:40170000AC68002202E001C901C30432A242FAD1E868002202E0002102C304328242FAD11035013E002EE9D100F04EFBFFF710FFFEE7C04601000000B8ED010010B50E4AC6
:40174000136801218B43136000230AE0032B03D89A000A49505800E009489900094A885001332F2BF2D9FEF7B3FC034A116801230B43136010BDC046000010400000000020
:40178000B51600000000002004490A68D2B208239A43C00018401043086070470004044004490A68D2B210239A43000118401043086070470004044004490A68D2B2202335
:4017C0009A43400118401043086070470004044000230AE00D4A12683F210A400C49C95C8A4201D1033303E001332D2BF2D9032308490868084A02400A60084A94466344F1
:401800001B78DBB2064A13607047C0462CFF0B4030ED010000002240FFFFFFBFCDF1FF0F28FF0B40034B18688023DB05184000D001207047000022401F2318401E3B8340AF
:40184000014A13607047C04600E100E001BE704770B504000D001F2802D90020FFF7F6FF1034A40080239B059C4664442068256070BDC04610B5040006E0084B586800F0AC
:40188000D7F9074B9C46644480231B029C42F4D8024B9868604300F0CBF910BDC80000200080FFFF70B582B000F0C0F800285DD000F0C7F9050000230AE02D4A12683F21D4
:4018C0000A402C49C95C8A4201D1033303E001332D2BF2D903230021274A1160274A1268D20606D1254802681F318A4313390A430260234C2168234A1140234A5A438023E1
:40190000DB019C466244D20B013A5205520D0B001343A0225203134323601C4B1B680193302000F095F91A4A13688021C9050B4313602668174B1E40002407E00120FFF759
:4019400099FF1034A30533430D4A1360EE2CF5D90120FFF78FFFFF239B051E43084B1E60019A0A4B1A60280000F06FF902B070BD2CFF0B4030ED010028FF0B4034FF0B40D5
:401980000800224000F800C040420F003000104000002240FFFF3FC030B587B0040000F050F90500FFF73EFF002803D0FFF710FF012100E00021104B1B6800930F4B1B6893
:4019C0000193033C0E4B1B5D02930E4B1B68039304AA0D4B04936B4605930C4B1A600C480C4A10601B68012901D1FFF75BFF280000F02BF907B030BD08010B4000010B401C
:401A000030ED010030001040B6EA0000080010401700008004001040034B1868C0231B02184000D00120704700010B40034B1B68002B01DA012000E00020704700002240FA
:401A400010B500F0FEF8044A1368C02109020B43136000F0FAF810BD00010B4010B500F0F0F808490A68084B1A408024E40122430A600A6813408022120213430B6000F0B9
:401A8000E4F810BD00010B40FF3FFFFF70B5050000F0D7F80400FFF7BFFF002803D0FFF7DDFF012100E0002108482840084A1568084B2B40184310601368012901D1FFF7E7
:401AC000BFFF200000F0C1F870BDC0460404040010020B40FBFBFBFF10B5244B1B685B0715D5234B5B685B070ED5224B596A042001401F4C62688A4362605A6A82435A62BC
:401B00009B69002B00D098470420FFF7BFFF174B1B685B0518D5164B5B685B0510D5154B596A8022D2001140114842688A434260596A114A0A405A62DB69002B00D09847B8
:401B40008020C000FFF7A2FF084B1B685B030CD5074B5B685B0304D5064B1B6A002B00D098478020C002FFF791FF10BD10020B40DC000020A0010020FFFBFFFF04490A68D7
:401B8000D2B202239A43400018401043086070470007044004490A68D2B220239A4340011840104308607047000504400822034B1A700132024B1A707047C04621000F405A
:401BC00031000F4010B5054B1B78002B04D1FFF7EDFF0122014B1A7010BDC046C8010020044B1B78DB07FBD4034B1870034B19707047C04661000F4041000F4051000F4049
:401C000030B5002409E0064B1B78DB07FBD4054B18700D5D044B1D7001349442F3D330BD61000F4041000F4051000F40000000000230800803D00138FDD1C046C046C046BB
:401C40007047EFF3108072B6704780F31088704770B50400FFF7F5FF0500102C05D8104A136803218B43136016E0202C07D80C490B6803229343023A13430B600CE0302C06
:401C800007D807490B6803229343013A13430B6002E00020FFF7DAFD2800FFF7D6FF70BD30001040002243088B4274D303098B425FD3030A8B4244D3030B8B4228D3030CBA
:401CC0008B420DD3FF22090212BA030C8B4202D31212090265D0030B8B4219D300E0090AC30B8B4201D3CB03C01A5241830B8B4201D38B03C01A5241430B8B4201D34B035F
:401D0000C01A5241030B8B4201D30B03C01A5241C30A8B4201D3CB02C01A5241830A8B4201D38B02C01A5241430A8B4201D34B02C01A5241030A8B4201D30B02C01A52416C
:401D4000CDD2C3098B4201D3CB01C01A524183098B4201D38B01C01A524143098B4201D34B01C01A524103098B4201D30B01C01A5241C3088B4201D3CB00C01A52418308FD
:401D80008B4201D38B00C01A524143088B4201D34B00C01A5241411A00D20146524110467047FFE701B5002000F006F802BDC0460029F7D076E770477047C046014B1868D6
:401DC0007047C046440100200E4B70B500251E000D4CE41AA410A54204D0AB00F35898470135F8E71CF0D6FF084B00251E00084CE41AA410A54204D0AB00F358984701350D
:401E0000F8E770BDA0ED0100A0ED0100A0ED0100A8ED0100002310B59A4203D0CC5CC4540133F9E710BD03008218934202D019700133FAE7704700000EB410B59DB002A986
:401E4000029008610B48822488604861012040421FABC881084804CBA400006801938C8100F06EF80023029A13701DB010BC08BC03B01847FFFFFF7F44010020F0B58E68D8
:401E800085B007000C00039201939E4243D890238A89DB001A423ED003250969236801985B1A029363695D43EB0F5D19029B6D1001331B18AB4200D91D00530510D529003D
:401EC000380000F037FB061E14D0029A2169FFF7A1FFA289194B134080221343A38112E02A00380000F086FB061E0CD12169380000F0D4FA0C23402201203B60A389404285
:401F00001343A38117E0029B2661F61826606561019EED1AA560019BB34200D21E0032000399206800F0A5FA0020A3689B1BA36023689E19266005B0F0BDC0467FFBFFFF15
:401F4000F0B59FB0029005938B890F0016001B0610D50B69002B0DD1402100F0EBFA38603861002804D10C23029A01381360D8E040237B61002306AD6B6120336B7610339C
:401F8000AB7634002378002B03D1A31B049312D003E0252BF9D00134F4E7A31B320039000298FFF76BFF431C00D1B4E06A69049B944663446B612378002B00D1ABE0012204
:401FC000002352426A6002A95432521801342B60EB60AB601370AB65534E21780522300000F03CFA002807D00123801B83402A68013413432B60EFE72B68DA0604D55322A5
:40200000202102A8121811701A0704D553222B2102A81218117022782A2A03D0099B00200A210EE0059A111D12680591002A01DB099204E05242EA60022213432B600134E2
:402040000BE02278303A092A04D84B4301349B180120F6E7002800D0099323782E2B1ED163782A2B0AD1059B02341A1D1B680592002B01DA01235B42079310E000230A20A7
:402080001A0001346B6021783039092904D84243013452180123F6E7002B00D00792234E21780322300000F0D9F9002806D04023801B83402A68013413432B6021780622F4
:4020C0001B48661C297600F0C9F9002812D0194B002B06D10722059B073393430833059314E005AB00933A00134B2900029800E000BF07E005AB00933A000F4B29000298DC
:4021000000F08AF80390039B013304D06B69039A9B186B6135E7BB890B985B0601D5012040421FB0F0BDC04660ED010066ED01006AED0100000000007D1E0000F7B517004D
:4021400001938A680B6900900C00934200DA130022003B6043321278002A01D001333B6023689B0602D53B6802333B60062523681D401ED0230043331B785A1E9341226808
:4021800092061CD53020E1184331087021005A1C45310978A2184332023311700FE022000123193201990098089EB047431C0ED00135E3683A689B1A9D42F0DBDAE72200FD
:4021C000019943320098089DA847431C02D10120404220E006232068E1683A6803400025042B03D18D1AEB43DB171D40A3682269934201DD9B1AED180027BD420AD022007F
:4022000001231A3201990098089EB047431CDED00137F2E70020FEBDF0B58BB006920A0043320793059004920A7E0C00109B6E2A00D1ABE011D8632A22D009D8002A00D133
:40224000B5E0582A00D0C5E045310A70814A4FE0642A1DD0692A1BD0BCE0732A00D1AAE009D86F2A29D0702A00D0B3E0202209680A43226037E0752A1FD0782A33D0A9E096
:402280000E001A684236111D196013683370A4E021681A68080606D4490604D5111D19600023D55E02E0111D19601568002D3BDA2D23049A6D42137036E021681A6808061E
:4022C00006D4490604D51568111D1960ADB202E0111D196015685F4B227E039308276F2A1DD00A271BE022007821453211705A4A19680392081D226818600D68100602D49D
:40230000500600D5ADB2D30702D520231A4322601027002D03D1202322689A4322602300002243331A7002E00A274A4B03936368A360002B09DB0422216891432160002D4B
:4023400005D1049E002B11D07BE0002D79D0049E28003900FFF72CFD039B013E5B5C280033703900FFF79EFC051EF1D1082F09D12368DB0706D563682269934202DC302324
:40238000013E3370049B9B1B23612BE009681A68080607D4490605D5111D19601368A28A1A8004E0111D1960136862691A600023049E236116E01A68111D19601668002118
:4023C0006268300000F04AF8002801D0801B6060636803E0260042363270012323610023049A1370079B09AA00932100069B0598FFF7A4FE431C02D10120404227E023693C
:40240000320006990598079DA847431CF4D0236800259B070FD4099BE068984217DA180015E022000123193206990598079EB047431CE1D00135E368099A9B1A9D42F0DB83
:40244000E9E72600039B42361B7833708EE70BB0F0BDC04671ED010082ED0100C9B28218904204D003788B4202D00130F8E70020704710B5884202D98B18984201D30023CE
:4024800005E09B1A013A08D3995C8154FAE7934203D0CC5CC4540133F9E710BD70B50500002944D00C1F2368002B00DAE418280000F0D8F81E4A13681100002B02D163603D
:4024C000146031E0A3420DD92268A018834203D118685B688218226063600C6024E0A24203D813005A68002AF9D11E689819A0420BD12168711858181960824214D1106886
:402500005268411819605A600EE0A04202D90C232B6009E021686018824203D1106852684118216062605C60280000F09CF870BDD0010020032370B5CD1C9D4308350600C3
:402540000C2D01D20C2501E0002D01DBA94202D90C23336048E0300000F084F8234B1C681A002100002913D00B685B1B0DD40B2B02D90B60CC181EE08C4202D163681360A8
:402580001AE04B6863600C0016E00C004968E9E7174C2368002B03D1300000F051F820602900300000F04CF8431C18D00323C41C9C43A0420DD12560300000F054F82000BC
:4025C00007220B30231D9043C31A0ED05A42E2500BE0211A300000F033F8431CEBD10C233000336000F03FF8002070BDD0010020CC010020F8B506000C001500002904D139
:402600001100FFF797FF040018E0002A03D1FFF745FF2C0012E000F027F885420ED929003000FFF787FF071E07D021002A00FFF7F1FB21003000FFF731FF3C002000F8BD68
:40264000002370B5064C050008002360FFF73AF8431C03D12368002B00D02B6070BDC04664020020704770470B1F1A68101F002A04DA891804390B68D0180438704700008E
:402680000000000090040000960400009604000096040000960400008C04000096040000960400009604000096040000960400009604000096040000960400009604000024
:4026C0009604000096040000960400009604000096040000880400009604000096040000960400009604000096040000960400009604000096040000960400009604000048
:40270000960400009604000096040000960400009604000096040000960400007804000096040000960400009604000096040000960400008004000096040000960400002D
:4027400096040000960400009604000096040000960400008404000096040000960400009604000096040000960400009604000096040000960400009604000096040000CB
:40278000960400009604000096040000960400009604000096040000960400009404000096040000960400009604000096040000960400007C040000646464006464640071
:4027C0006464640064646400A0A0A000A0A0A000A0A0A000A0A0A000F0F0F000F0F0F000F0F0F000F0F0F00064646400646464006464640064646400FFFFFF00FFFFFF0017
:402800006969690069696900E3E3E300E3E3E300A0A0A000A0A0A00064646400646464006464640064646400A0A0A000A0A0A000A0A0A000A0A0A000F0F0F000F0F0F00040
:40284000F0F0F000F0F0F00064646400646464006464640064646400FFFFFF00FFFFFF006969690069696900E3E3E300E3E3E300A0A0A000A0A0A00064646400646464002E
:402880006464640064646400FFFFFF00FFFFFF006969690069696900E3E3E300E3E3E300A0A0A000A0A0A000482900000000200035000000FF0000000000000048FD000034
:4028C0000000160024000000FF0000000000000048690100000010001A000000FF00000000000000489D010000000C0010000000FF0000000000000048BD010000000800B5
:402900000E000000FF0000000000000048CB0100000008000C000000FF0000000000000048D70100000006000A000000FF0000000000000048E101000000050008000000FD
:40294000FF00000000000000000000000000000000000000000000000000000000000000000000000000000000000000000000000000000000000000000000000000000058
:402980000000000000000000000000000000000000000000000000000000000000000000000000000000000000000000000000000000000000000000000000000000000017
:4029C00000000000000000000000000000000000000000000000000000000000000000000000000000000000000000000000000000000000000000000000000000000000D7
:402A00000000000000000000000000000000000000000000000000000000000000000000000000000000000000000000000000000000000000000000000000000000000096
:402A4000000000000000000000000000000000000000000000F00F0000FC3F0000FFFF00801FF801C003C003E0018007F000000F7000000E381C381C383E7C1C3C3E7C3C33
:402A80001C3E7C381C1C38381C0000381C0000381C0000381C03C0383C03C03C3807E01C381E781C70FC3F0EF0F81F0FE0E18707C003C003801FF80100FFFF0000FC3F0078
:402AC00000F00F00000000000000000000000000000000000000000000000000000000000000000000000000000000000000000000000000000000000000000000000000D7
:402B00000000000000000000000000000000000000000000000000000000000000000000000000000000000000F00F0000FC3F0000FFFF0080FFFF01C0FFFF03E0FFFF0738
:402B4000F0FFFF0FF0FFFF0FF8E3C71FF8C1831FFCC1833FFCC1833FFCE3C73FFCFFFF3FFCFFFF3FFCFFFF3FFCFC3F3FFCFC3F3FF8F81F1FF8E1871FF003C00FF007E00F70
:402B8000E01FF807C0FFFF0380FFFF0100FFFF0000FC3F0000F00F00000000000000000000000000000000000000000000000000000000000000000000000000000000009F
:402BC0000000000000000000000000000000000000000000C007E003F01FF80FF03FFC0FF87FFE1FFC7FFE3FFCFFFF3FFCFFFF3FFEFFFF7FFEFFFF7FFEFFFF7FFEFFFF7F31
:402C0000FEFFFF7FFEFFFF7FFEFFFF7FFEFFFF7FFEFFFF7FFCFFFF3FFCFFFF3FFCFFFF3FF8FFFF1FF8FFFF1FF8FFFF1FF0FFFF0FF0FFFF0FE0FFFF07C0FFFF03C0FFFF03E2
:402C400080FFFF0180FFFF0100FFFF0000FE7F0000FC3F0000FC3F0000F81F0000F00F0000E0070000C0030000800100000000000000000000000000000000000000000024
:402C800000000000000000000000000000000000000000000000000000000000000000000000000000000000008000000080000000C0010000E0030000E0030000F0070096
:402CC00000F80F0000F81F0000FC1F0000FE3F0000FF7F0000FFFF0080FFFF01C0FFFF03E0FFFF07F0FFFF0FF8FFFF1FFCFFFF3FFEFFFF7FFCFFFF3FF8FFFF1FF0FFFF0FAC
:402D0000E0FFFF07C0FFFF03C0FFFF0180FFFF0000FF7F0000FE7F0000FC3F0000FC1F0000F80F0000F00F0000F0070000E0030000E0030000C001000080000000800000DB
:402D400000000000000000000000000000000000000000000000000000000000000000000000000000000000000000000000000000000000000000000000000000E007006C
:402D800000F00F0000F81F0000FC3F0000FE7F0000FE7F0000FE7F0000FE7F0000FE7F0000FE7F0000FC3F0000FC3F0000F81F00E0FBDF07F8FFFF1FF8FFFF1FFCFFFF3F23
:402DC000FEFFFF7FFEFFFF7FFEFFFF7FFEFFFF7FFEFFFF7FFEFFFF7FFCBFFF3FFCFFFF3FF8DFFB1FF0CFF30FE0C3C30700C0030000E0070000E0070000E0070000E0070041
:402E000000E0070000E0070000F00F0000F00F0000F00F000000000000000000000000000000000000000000000000000000000000000000000000000000000000000000C7
:402E400000000000000000000000000000000000008000000080010000C0010000E0030000E0070000F0070000F80F0000FC1F0000FC3F0000FE7F0000FFFF0080FFFF0079
:402E8000C0FFFF01E0FFFF03F0FFFF07F0FFFF0FF8FFFF1FFCFFFF3FFCFFFF3FFEFFFF7FFEFFFF7FFEFFFF7FFEFFFF7FFEFFFF7FFEFFFF7FFCFFFF3FF8DFFB1FF0CFF30F2C
:402EC000E0C3C30700C0030000E0070000E0070000E0070000E0070000E0070000F00F0000F00F0000F00F0000000000000000000000000000000000000000000000000022
:402F00000000000000000000000000000000000000000000000000000000000000000000000000000000000000000000000000000000000000000000000000000000000091
:402F40000000000000000000000000000000000000000000000000000000000000000000000000000000000000000000000000000000000000000000000000000000000051
:402F80000000000000000000000000000000000000000000000000000000000000000000000000000000000000000000000000000000000000000000000000000000000011
:402FC00000000000000000000000000000000000000000000000000000000000000000000000000000000000000000000000000000000000000000000000000000000000D1
:403000000000000000000000000000000000000000000000000000000000000000000000000000000000000000000000000000000000000000000000000000000000000090
:403040000000000000000000000000000000000000000000000000000000000000000000000000000000000000000000000000000000000000000000000000000000000050
:403080000000000000000000000000000000000000000000000000000000000000000000000000000000000000000000000000000000000000000000000000000000000010
:4030C00000000000000000000000000000000000000000000000000000000000000000000000000000000000000000000000000000000000000000000000000000000000D0
:40310000000000000000000000000000000000000000000000000000000000000000000000000000000000000000000000000000000000000000000000000000000000008F
:40314000000000000000000000000000000000000000000000000000000000000000000000000000000000000000000000000000000000000000000000000000000000004F
:40318000000000000000000000000000000000000000000000000000000000000000000000000000000000000000000000000000000000000000000000000000000000000F
:4031C00000000000000000000000000000000000000000000000000000000000000000000000000000000000000000000000000000000000000000000000000000000000CF
:40320000000000000000000000000000000000000000000000000000000000000000000000000000000000000000000000000000000000000000000000000000000000008E
:403240000000000000000000000000000000000000000000000000000000000000000000000000000000000000000000000000000000000C0000801F0000F81F0080FF1FEE
:403280000080FF3F0080BF3F0000C33F0000C03F0000E0790000F0790000F0780000F8F0000078F000FE3D3080FF3F00E0FF1F00F0FF3F00F8037F00FC00FC007C00F8001C
:4032C0003E00F0011E00E0011F00E0030F00C0030F00C0030F00C0030F00C0030F00C0030F00C0031F00E0031E00E0013E00F0017C00F800FC00FC00F8037F00F0FF3F006E
:40330000E0FF1F0080FF070000FE0100000000000000000000000000000000000000000000000000000000000000000000000000000000000000000000000000000000000A
:40334000000000000000000000F00F0000FC3F0000FFFF0080FFFF01C01FF803E007E007E003C007F001800FF000000FF800001F7800001E7800001E7800001E7800001E56
:403380007800001EF800001FF000000FF001800FF003C00FE007E007C01FF80380FFFF0100FFFF0000FE7F0000F00F0000C0030000C0030000C0030000C0030000FFFF0074
:4033C00000FFFF0000FFFF0000FFFF0000C0030000C0030000C0030000C0030000C00300000000000000000000000000000000000000000000000000000000000000000004
:40340000000000000000000000000000000000000000000000000000000000000000000000000000000000000000000000000000000000000000000000000000000000008C
:40344000000000000000000000000000000000000000000000000000000000000000000000000000000000000000000000000000000000000000000000000000000000004C
:40348000000000000000000000000000000000000000000000000000000000000000000000000000000000000000000000000000000000000000000000000000000000000C
:4034C000000000000000000000000000000000000000000000000000000000000000000000000000000000000000000000000020000000380000003E0000803F0000F03F48
:403500000000FC3F0000FF3F00C0FF3B00F0FF3800F83F3800F80F3800F8033800F80038003800380038003800380038003800380038003800380038003800380038003860
:4035400000380038003800380038003800380038003800380038003800380038003800380038E03F0038F83F0038FC3F0038FC1F0038FE1F0038FE0F0038FE070038FC0331
:403580000038F800E03F0000F83F0000FC1F0000FE1F0000FE1F0000FE0F0000FE070000FC030000F800000000000000000000000000000000000000000000000000000027
:4035C0000000000000000000000000000000000000000000000000000000000000C0030000C0030000C00300C0C00303E0F18F07E0FFFF07C0FFFF0380FFFF01803FFC01B4
:40360000800FF001C007E003C007E003FC03C03FFC03C03FFC03C03FFC03C03FC007E003C007E003800FF001803FFC0180FFFF01C0FFFF03E0FFFF07E0F18F07C0C003031C
:4036400000C0030000C0030000C003000000000000000000000000000000000000000000000000000000000000000000000000000000000000000000000000000000000001
:4036800000000000000000000000000000000000000000000000000000000000000000000000000000000000000000000000000000000000020000000E0000003E000000BC
:4036C000FE000000FE030000FE0F0000FE3F0000FEFF0000FEFF0100FEFF0700FEFF1F00FEFF7F00FEFFFF01FEFFFF07FEFFFF1FFEFFFF7FFEFFFF1FFEFFFF07FEFFFF0139
:40370000FEFF7F00FEFF1F00FEFF0700FEFF0100FEFF0000FE3F0000FE0F0000FE030000FE0000003E0000000E00000002000000000000000000000000000000000000005B
:403740000000000000000000000000000000000000000000000000000000000000000000000000000000000000000000000000000000000000000000000000000000000049
:40378000000000000000000000000040000000700000007C0000007F0000C07F0000F07F0000FC7F0000FF7F0080FF7F00E0FF7F00F8FF7F00FEFF7F80FFFF7FE0FFFF7F0F
:4037C000F8FFFF7FFEFFFF7FF8FFFF7FE0FFFF7F80FFFF7F00FEFF7F00F8FF7F00E0FF7F0080FF7F0000FF7F0000FC7F0000F07F0000C07F0000007F0000007C00000070AA
:403800000000004000000000000000000000000000000000000000000000000000000000000000000000000000000000000000000000000000000000000000000000000048
:40384000008001000080010000C0030000E0070000E0070000F00F0000FC3F0000DE7B0000CFF30000C7E30000C0030000C0030000C0030000C0030000C0030000C0030024
:4038800000C0030000C0030000C0030000C0030000C0030000C0030000C0030000C0030000C0030000C0030000C0030000C0030000C0030000C0030000C0030000C00300D8
:4038C00000C0030000C0030000C0030000C0030000C7E30000CFF30000DE7B0000FC3F0000F00F0000E0070000E0070000C00300008001000080010000000000000000002A
:403900000000000000000000000000000000000000000000001FF800001FF800001FF800001FF800001FF800001FF800001FF800001FF800001FF800001FF800001FF8008A
:40394000001FF800001FF800001FF800001FF800001FF800001FF800001FF800001FF800001FF800001FF800001FF800001FF800000FF800000E7000000E7000000E7000B2
:403980000000000000000000000000000000000000000000803FFC01803FFC01803FFC01803FFC01803FFC01803FFC0100000000000000000000000000000000000000009F
:4039C0000000000000000000000000000000000000000000000000000000000000000000000000000000000000FEFF03C0FFFF03E0FFFF03F0FF8003F0FF8003F8FF8003C7
:403A0000F8FF8003F8FF8003F8FF8003F8FF8003F8FF8003F8FF8003F0FF8003F0FF8003E0FF8003C0FF800380FF800300FE800300F8800300E0800300E0800300E08003FB
:403A400000E0800300E0800300E0800300E0800300E0800300E0800300E0800300E0800300E0800300E0800300E0800300E0800300E0800300E0800300E0800300E0800316
:403A800000E0800300E0800300E0800300E0800300E0800300E0800300E0800300E0800300000000000000000000000000000000000000000000000000C07F0000F8FF03B5
:403AC00000FEFF0300FFFF03803FC003800F0000C0070000C0070000C0070000C0070000C00F0000801F0000807F000000FF010000FE070000FC1F0000FE7F0000CFFF00C0
:403B0000800FFF018007FC03C007F003C007E007C007E007C007C007C00FC007801FC007807FC00300FFE00300FEE30100FCFF0000F07F0000E07F000000FF000000FE0183
:403B40000000F8030000F0030000E0070000C0070000C0070000C0074000C007C001E003C00FF803C0FFFF01C0FFFF0000FF3F0000F80F00000000000000000000000000E4
:403B80000000000000000000000000000000000000000000000000000000000000000000000000000000000000000000000000000000000000000000000000000000000005
:403BC00000000000FCFFFF3FFCFFFF3FFCFFFF3FFCFFFF3FFCFFFF3FFCFFFF3FFCFFFF3FFCFFFF3FFCFFFF3F000000000000000000000000000000000000000000000000C4
:403C00000000000000000000000000000000000000000000000000000000000000000000000000000000000000000000000000000000000000000000000000000000000084
:403C40000000000000000000000000000000000000000000008001000080010000C0030000E0070000E0070000F00F0000FC3F0000DE7B0000CFF30000C7E30000C183006E
:403C800000C0030000C0030000C0030000C0030000C0030000C0030000C0030000C0030000C0030000C0030000C0030000C0030000C0030000C0030000C0030000C00300D4
:403CC00000C0030000C0030000C0030000C0030000C0030000C0030000C0030000C0030000C1830000C7E30000CFF30000DE7B0000FC3F0000F00F0000E0070000E007009B
:403D000000C00300008001000080010000000000000000000000000000FFFF0000FFFF0000FFFF0000FFFF00000000000000000000000000000000000080010000800100C4
:403D400000C0030000E0070000E0070000F00F0000FC3F0000FE7F0000CFF30000C7E30000C0030000C0030000C0030000C0030000C0030000C0030000C0030000C0030077
:403D800000C0030000C0030000C0030000C0030000C0030000C0030000C0030000C0030000C0030000C0030000C0030000C0030000C0030000C0030000C0030000C00300D3
:403DC00000C0030000C0030000C0030000C0030000C0030000C0030000C0030000C0030000C0030000C0030000C0030000C00300000000000000000000000000000000009F
:403E000000000000000000000000000000C0030000C0030000C0030000C0030000C0030000C0030000C0030000C0030000C0030000C0030000C0030000C0030000C003009B
:403E400000C0030000C0030000C0030000C0030000C0030000C0030000C0030000C0030000C0030000C0030000C0030000C0030000C0030000C0030000C0030000C0030012
:403E800000C0030000C0030000C0030000C0030000C0030000C0030000C0030000C7E30000CFF30000DE7B0000FC3F0000F00F0000E0070000E0070000C00300008001009C
:403EC0000080010000000000000000000000000000000000000000000000000000000000000000000000000000000000000000000000000000000000000000000000000041
:403F00000000000000000000000000000000000000000000000000000000000000003800000070000000F0000000E0010000E0030000C007FCFFFF0FFCFFFF3FFCFFFF3FE3
:403F4000FCFFFF0F0000C0070000E0030000E0010000F000000070000000380000000000000000000000000000000000000000000000000000000000000000000000000015
:403F80000000000000000000000000000000000000000000000000000000000000000000000000000000000000000000000000000000000000000000000000000000000001
:403FC000000000000000000000000000000000000000000000000000000000000000000000000000000000000000000000000000001C0000000E0000000F00008007000001
:40400000C0070000E0030000F0FFFF3FFCFFFF3FFCFFFF3FF0FFFF3FE0030000C007000080070000000F0000000E0000001C000000000000000000000000000000000000A0
:404040000000000000000000000000000000000000000000000000000000000000000000000000000000000000000000000000000000000000000000000000000000000040
:40408000000000000000000000000000000000000000000000000000000000000000000000000000000000000000000000000000000000003C0000003C0000003C0000004C
:4040C0003C0000003C0000003C0000003C0000003C0000003C0000003C0000003C0000003C0000003C0000003C0000003C0000003C0000003C0000003C0000003C00000000
:404100003C0000003C0000003C0000003C000000FCFFFF3FFCFFFF3FFCFFFF3FFCFFFF3F0000000000000000000000000000000000000000000000000000000000000000AB
:40414000000000000000000000000000000000000000000000000000000000000000000000000000000000000000000000000000000000000000000000000000000000003F
:40418000000000000000000000000000000000000000000000000000001C3800000E7000000FF0008007E001C007E003E003C007F0FFFF0FFCFFFF3FFCFFFF3FF0FFFF0F06
:4041C000E003C007C007E0038007E001000FF000000E7000001C38000000000000000000000000000000000000000000000000000000000000000000000000000000000032
:40420000000000000000000000000000000000000000000000000000000000000000000000000000000000000000000000000000000000000000000000000000000000007E
:40424000000000000000000000000000008000000080000000C0010000C0010000E0030000E0030000F0070000F0070000F00F0000F80F0000F81F0000FC1F0000FC3F0095
:4042800000FE3F0000FE7F0000FF7F0000FFFF0080FFFF0080FFFF01C0FFFF01C0FFFF03E0FFFF03E0FFFF07E0FFFF07F0FFFF0FF0FFFF0FF8FFFF1FF8FFFF1FFCFFFF3F43
:4042C000FCFFFF3FFEFFFF7F00000000000000000000000000000000000000000000000000000000000000000000000000000000000000000000000000000000000000000A
:404300000000000000000000000000000000000000000000000000000000000000000000FEFFFF7FFCFFFF3FFCFFFF3FF8FFFF1FF8FFFF1FF0FFFF0FF0FFFF0FE0FFFF0787
:40434000E0FFFF07E0FFFF03C0FFFF03C0FFFF0180FFFF0180FFFF0000FFFF0000FF7F0000FE7F0000FE3F0000FC3F0000FC1F0000F81F0000F80F0000F00F0000F007005A
:4043800000F0070000E0030000E0030000C0010000C001000080000000800000000000000000000000000000000000000000000000000000000000000000000000000000BE
:4043C00000000000000000000000000000000000000000000000000000000000000000000000000000000000000000000000000000000000000000000000000000000000BD
:40440000000000000000000000000000000000000000000000000000000000000000000000000000000000000000000000000000000000000000000000000000000000007C
:40444000000000000000000000000000000000000000000000000000000000000000000000000000000000000000000000000000000000000000000000000000000000003C
:40448000000000000000000000000000000000000000000000000000000000000000000000000000000000000000000000E0030000E0030000E0030000E0030000E003008D
:4044C00000E0030000E0030000E0030000E0030000E0030000E0030000E0030000E0030000E0030000E0030000E0030000E0030000E0030000E0030000E0030000E003008C
:4045000000E0030000E0030000E0010000C0010000C0010000C00100000000000000000000000000000000000000000000F0070000F0070000F0070000F0070000F00700BE
:4045400000F00700000000000000000000000000000000000000000000000000000000000000000000000000000000000000000000000000C00FF801C00FF801C00FF801EC
:40458000C00FF801C00FF8018007F0008007F0008007F0008007F0008007F0008007F0008007F0008007F0008007F00000000000000000000000000000000000000000003C
:4045C00000000000000000000000000000000000000000000000000000000000000000000000000000000000000000000000000000000000000000000000000000000000BB
:40460000000000000000000000000000000000000000000000000000000000000000000000000000000000000000000000000000000000000000000000000000000000007A
:40464000000000000000000000000000000000000000000000C0030F00C0030F00E0810700E0810700E0810700E0810700F0C00300F0C00300F0C0030078E0010078E0012B
:40468000E0FFFF7FF0FFFF7FF0FFFF7FF0FFFF3F003CF000003CF000001E7800001E7800001E7800000F3C00000F3C00FCFFFF1FFEFFFF1FFEFFFF0FFEFFFF0F80071E00F7
:4046C00080071E00C0030F00C0030F00C0030F00C0030F00E0810700E0810700E0810700E0810700F0C00300F0C003000000000000000000000000000000000000000000C7
:404700000000000000000000000000000000000000000000000000000000000000800300008003000080030000F03F0000FCFF0100FEFF0300FFFF03809FC303808F0302CB
:40474000C08F0300C0870300C0870300C0870300C0870300C08F0300808F0300809F030000BF030000FE030000FC030000F8070000F00F0000E03F0000807F000080FF00DC
:404780000080FF010080FB030080F3030080E3070080C3070080C3070080C3070080C3070080C3070080E303E080E303E087FB01E0FFFF01E0FFFF0080FF3F0000FC0F0014
:4047C0000080030000800300008003000000000000000000000000000000000000000000000000000000000000000000000000000000000000000000000000F0E0070078E1
:40480000F81F003CFC3F003C3E7C001E1E78000F1E7880070FF080070FF0C0030FF0E0010FF0E0010FF0F0000FF078001E7878001E783C003C3C1E00FC3F0F00F81F0F00C0
:40484000E087070000C0030000C0030000E0E10700F0F81F00F0FC3F00783C3C003C1E78001E1E78001E0FF0000F0FF080070FF080070FF0C0030FF0E0010FF0E0011E7884
:40488000F0001E7878003C3C3C00FC3F3C00F81F1E00E0070F00000000000000000000000000000000000000000000000000000000000000000000000000000000000000A4
:4048C00000000000000000000000000000E00F0000F83F0000FC7F0000FEFF00007EFC00003FF801001FF001001FF001001FF001001FF001001FF800003FF800003E7C0020
:40490000003E3F0000FE1F0000FC0F0000FC030000FF0100C0FF0100E0FF01F8F0F303F8F8E103F8FCE007F87CC00F783EC00F783E801F783E003F7C3E007F3C3E007E3C27
:404940003E00FC3E7E00FC1F7E00F80FFC00F00FFC01E007F803F00FF007FE1FF0FFFF3FC0FF3F7F80FF0FFE00FC0100000000000000000000000000000000000000000081
:4049800000000000000000000000000000000000000000000000000000F00F0000F00F0000F00F0000F00F0000F00F0000F00F0000E0070000E0070000E0070000E0070061
:4049C00000E0070000E0070000E0070000E0070000E0070000E00700000000000000000000000000000000000000000000000000000000000000000000000000000000004D
:404A00000000000000000000000000000000000000000000000000000000000000000000000000000000000000000000000000000000000000000000000000000000000076
:404A400000000000000000000000000000000000000000000000000000000000000000000000000000000000000000000000000E0000C00F0000F00F0000F80F0000FE0352
:404A80000000FF0000803F0000800F0000C0070000E0070000E0030000F0010000F8010000F8000000F80000007C0000007C0000007C0000007C0000003E0000003E0000D2
:404AC000003E0000003E0000003E0000003E0000003E0000003E0000003E0000003E0000003E0000007C0000007C0000007C0000007C000000F8000000F8000000F80100AF
:404B000000F0010000E0030000E0070000C0070000800F0000803F000000FF000000FE030000F80F0000F00F0000C00F0000000E00000000000000000000000000000000C2
:404B400070000000F0030000F00F0000F01F0000C07F000000FF000000FC010000F0010000E0030000E0070000C00F0000800F0000801F0000001F0000001F0000003E0055
:404B800000003E0000003E0000003E0000007C0000007C0000007C0000007C0000007C0000007C0000007C0000007C0000007C0000007C0000007C0000003E0000003E006B
:404BC00000003E0000003E0000001F0000001F0000801F0000800F0000C0070000E0070000E0030000F0010000FC010000FF0000C07F0000F01F0000F00F0000F00300000F
:404C0000700000000000000000000000000000000000000000000000000000000000000000E0030000E0030000E0030000E0030000E0030020C00102E0C08103E0C3E10307
:404C4000E00FF803F01FFC07E00FF803000C1800000000000010040000780F00003C1E00003E3E00001F7C00801FFC00800FF8000007700000041000000000000000000071
:404C800000000000000000000000000000000000000000000000000000000000000000000000000000000000000000000000000000000000000000000000000000000000F4
:404CC00000000000000000000000000000000000000000000000000000000000000000000000000000000000000000000000000000000000000000000000000000000000B4
:404D0000000000000000000000000000000000000000000000000000000000000000000000C0030000C0030000C0030000C0030000C0030000C0030000C0030000C003005B
:404D400000C0030000C0030000C00300FCFFFF3FFCFFFF3FFCFFFF3FFCFFFF3F00C0030000C0030000C0030000C0030000C0030000C0030000C0030000C0030000C003002B
:404D800000C0030000C0030000C0030000000000000000000000000000000000000000000000000000000000000000000000000000000000000000000000000000000000AA
:404DC00000000000000000000000000000000000000000000000000000000000000000000000000000000000000000000000000000000000000000000000000000000000B3
:404E00000000000000000000000000000000000000000000000000000000000000000000000000000000000000000000000000000000000000000000000000000000000072
:404E400000F0070000F0070000F0070000F0070000F0070000F0070000F0070000F007000080070000800700008003000080030000C0030000F0010000F000000030000092
:404E800000000000000000000000000000000000000000000000000000000000000000000000000000000000000000000000000000000000000000000000000000000000F2
:404EC0000000000000000000000000000000000000000000000000000000000000000000000000000000000000000000E0FFFF07E0FFFF07E0FFFF07E0FFFF07000000001E
:404F00000000000000000000000000000000000000000000000000000000000000000000000000000000000000000000000000000000000000000000000000000000000071
:404F40000000000000000000000000000000000000000000000000000000000000000000000000000000000000000000000000000000000000000000000000000000000031
:404F800000000000000000000000000000000000000000000000000000000000000000000000000000000000000000000000000000000000000000000000000000000000F1
:404FC0000000000000000000000000000000000000000000000000000000000000000000000000000000000000F00F0000F00F0000F00F0000F00F0000F00F0000F00F00B7
:4050000000F00F0000F00F000000000000000000000000000000000000000000000000000000000000000000000000000000000000000000000000000000003C0000001E18
:405040000000001E0000000F0000000F00008007000080070000C0030000C0030000E0010000E0010000F0000000F000000078000000780000003C0000003C0000001E0038
:4050800000001E0000000F0000000F00008007000080070000C0030000C0030000C0030000E0010000E0010000F0000000F000000078000000780000003C0000003C000053
:4050C000001E0000001E0000000F0000000F00008007000080070000C0030000C0030000E0010000E0010000F0000000F000000078000000780000003C00000000000000F4
:40510000000000000000000000000000000000000000000000E0070000FC3F0000FE7F0000FFFF00801FF801C00FF003C007E003E003C007E003C007E0018007F001800F92
:40514000F001800FF001800FF000000FF800001FF800001FF800001FF800001FF800001FF800001FF800001FF800001FF800001FF800001FF800001FF800001FF000000F1D
:40518000F001800FF001800FF001800FE0018007E003C007E003C007C007E003C00FF003801FF80100FFFF0000FE7F0000FC3F0000E0070000000000000000000000000012
:4051C0000000000000000000000000000000000000000000000000000000000000000000000000000000000000000C0000800F0000F00F0000FE0F00C0FF0F00E0FF0F004C
:40520000E0870F0060800F0000800F0000800F0000800F0000800F0000800F0000800F0000800F0000800F0000800F0000800F0000800F0000800F0000800F0000800F0037
:4052400000800F0000800F0000800F0000800F0000800F0000800F0000800F0000800F0000800F0000800F0000800F0000800F0000800F00E0FFFF3FE0FFFF3FE0FFFF3F94
:40528000E0FFFF3F000000000000000000000000000000000000000000000000000000000000000000000000000000000000000000000000000000000000000000FC0300D2
:4052C000C0FF0F00E0FF3F00E0FF7F00E0037F006000FC000000F8000000F8010000F0010000F0010000F0010000F0010000F0010000F0010000F8000000F80000007C00A3
:4053000000007C0000003E0000001F0000800F0000C0070000E0030000F0010000F80000007C0000007C0000003E0000001F0000800F0000800F0000C0070000E007000051
:40534000E0030000F0030000F0FFFF01F0FFFF01F0FFFF01F0FFFF01000000000000000000000000000000000000000000000000000000000000000000000000000000009B
:405380000000000000000000000000000000000000F80F0080FF3F0080FFFF0080FFFF008007FC018000F0030000F0030000E0030000E0030000E0030000E0030000E003D3
:4053C0000000F0010000F0010000FC0000007E0000FC1F0000FC0F0000FC1F0000FC7F000000FF000000F8010000F0030000E0030000E0030000C0070000C0070000C0078F
:405400000000C0070000C0070000C0070000E0070000E0030000F0034000F801C003FE01C0FFFF00C0FF7F00C0FF1F0000FE03000000000000000000000000000000000084
:40544000000000000000000000000000000000000000000000000000000000000000000000000000000000000000F8000000FC000000FE000000FE000000FF000080FF00BE
:405480000080FF0000C0FF0000E0FB0000E0F90000F0F90000F8F8000078F800003CF800003EF800001EF800000FF800800FF8008007F800C003F800E003F800F001F800A5
:4054C000F000F800F800F800F8FFFF1FF8FFFF1FF8FFFF1FF8FFFF1F0000F8000000F8000000F8000000F8000000F8000000F8000000F8000000F8000000F8000000F800D0
:4055000000000000000000000000000000000000000000000000000000000000000000000000000000000000000000000000000000000000000000000000000000FFFF036A
:4055400000FFFF0300FFFF0300FFFF0300FFFF03000F0000000F0000000F0000000F0000000F0000000F0000000F0000000F0000000F0000000F000000FF010000FF0F0083
:4055800000FF3F0000FF7F000080FF000000FC010000F0030000E0030000E0030000C0070000C0070000C0070000C0070000C0070000C0070000E0070000E0030000F00393
:4055C0008000F8018007FE0080FFFF0080FF3F0080FF1F0000FC030000000000000000000000000000000000000000000000000000000000000000000000000000000000D4
:4056000000000000000000000000000000807F0000E0FF0700F8FF0700FCFF0700FE8007003F0004001F0000800F0000C00F0000C0070000C0070000E0030000E0030000EC
:40564000E0030000E0010000F0811F00F0E17F00F0F9FF01F0FDFF03F03DF807F00FE007F007C00FF007800FF003801FF003001FF003001FF003001FE003001FE003001F84
:40568000E003001FE003001FC003800FC007800FC00FC00F801FE007003FF00300FFFF0100FEFF0000F87F0000E01F00000000000000000000000000000000000000000076
:4056C000000000000000000000000000000000000000000000000000000000000000000000000000E0FFFF0FE0FFFF0FE0FFFF0FE0FFFF0FE0FFFF0F000080070000C007BB
:405700000000C0030000E0030000E0010000F0000000F8000000780000007C0000003C0000003E0000001E0000001F0000800F0000800F0000C0070000C0070000E00300C0
:4057400000E0030000F0010000F8010000F8000000FC000000FC0000007E0000007E0000003E0000003F0000003F0000003F0000801F0000801F0000801F00000000000098
:405780000000000000000000000000000000000000000000000000000000000000000000000000000000000000000000000000000000000000E00F0000FC7F0000FEFF0082
:4057C00000FFFF01803FFC01800FF003C007F003C007E003C007E003C007E003C007E003C00FE001C00FF001801FF001803FF80000FF7C0000FE3F0000FC1F0000F81F0069
:4058000000FE3F0000FFFF00801FFF01C00FFE03C007F803E003F007E003E007F001C00FF001C00FF001800FF001800FF001800FF001800FF003C007E007C007E00FE0079A
:40584000C01FF80380FFFF0100FFFF0000FE3F0000F00F00000000000000000000000000000000000000000000000000000000000000000000000000000000000000000095
:40588000000000000000000000F00F0000FC3F0000FEFF0000FFFF01801FF801C00FF003E007E007E003C007E0038007F001800FF001800FF001800FF001800FF001801FE6
:4058C000F001801FF001801FF003801FE003C01FE007C01FC00FE01FC03F781F80FF7F1F00FF3F1F00FC0F1F00F0031F0000000F0000800F0000800F0000800F0000C007D1
:405900000000C0070000E0070000E0030000F0014000F801C003FE00C0FF7F00C0FF3F00C0FF0F0000FC0300000000000000000000000000000000000000000000000000E2
:405940000000000000000000000000000000000000000000000000000000000000000000000000000000000000000000000000000000000000000000000000000000000027
:40598000000000000000000000F00F0000F00F0000F00F0000F00F0000F00F0000F00F0000F00F0000F00F00000000000000000000000000000000000000000000000000EF
:4059C00000000000000000000000000000000000000000000000000000F00F0000F00F0000F00F0000F00F0000F00F0000F00F0000F00F0000F00F000000000000000000AF
:405A00000000000000000000000000000000000000000000000000000000000000000000000000000000000000000000000000000000000000000000000000000000000066
:405A40000000000000000000000000000000000000000000000000000000000000F00F0000F00F0000F00F0000F00F0000F00F0000F00F0000F00F0000F00F00000000002E
:405A8000000000000000000000000000000000000000000000000000000000000000000000000000000000000000000000F00F0000F00F0000F00F0000F00F0000F00F00EB
:405AC00000F00F0000F00F0000F00F0000800F00008007000080070000C0070000C0030000F0030000F001000070000000000000000000000000000000000000000000002E
:405B00000000000000000000000000000000000000000000000000000000000000000000000000000000000000000000000000000000000000000020000000380000003ECF
:405B40000000803F0000E01F0000F8070000FE0100C07F0000F01F0000FC070000FF0100C07F0000F01F0000FC070000F01F0000C07F000000FF010000FC070000F01F0067
:405B800000C07F000000FE010000F8070000E01F0000803F0000003E0000003800000020000000000000000000000000000000000000000000000000000000000000000054
:405BC00000000000000000000000000000000000000000000000000000000000000000000000000000000000000000000000000000000000000000000000000000000000A5
:405C00000000000000000000000000000000000000000000000000000000000000000000FCFFFF3FFCFFFF3FFCFFFF3FFCFFFF3F0000000000000000000000000000000080
:405C40000000000000000000FCFFFF3FFCFFFF3FFCFFFF3FFCFFFF3F0000000000000000000000000000000000000000000000000000000000000000000000000000000040
:405C800000000000000000000000000000000000000000000000000000000000000000000000000000000000000000000000000000000000000000000000000000000000E4
:405CC00000000000000000000000000000000000000000000000000000000000040000001C0000007C000000FC010000F8070000E01F0000807F000000FE030000F80F0006
:405D000000E03F000080FF000000FE030000F80F0000E03F0000F80F0000FE030080FF0000E03F0000F80F0000FE0300807F0000E01F0000F8070000FC0100007C0000007A
:405D40001C00000004000000000000000000000000000000000000000000000000000000000000000000000000000000000000000000000000000000000000000000000003
:405D800000FF0F00F0FF7F00F0FFFF01F0FFFF03F001F807F000E007F000C00FF000800FF000800F0000800F0000800F0000C0070000C0070000E0030000F0010000F8008B
:405DC00000007E0000003F0000800F0000C0070000E0030000F0010000F0010000F0000000F8000000F8000000F8000000F8000000000000000000000000000000000000FB
:405E00000000000000FC010000FC010000FC010000FC010000FC010000FC010000000000000000000000000000000000000000000000000000000000000000000000000074
:405E4000000000000000000000000000000000000000000000803F0000F0FF0100FCFF03007EE007001F800F800F000FC007000FC003001EE001F81EF001FE1FF000FF1FFA
:405E8000F0800F1F7880071E78C0031E78E0011E7CE0011E3CE0011E3CE0001E3CF0001F3CF0001F3CF0001F3CF0801F3CF0801F3CF0C01F3CF0C01F3CF0E01E7CF0F11E35
:405EC00078E0791E78E07F1E78C03FFEF0C01FFEF0000FFEE0010000E0030000C0070000800F0001003FE00100FEFF0100F8FF0100E01F000000000000000000000000004F
:405F00000000000000000000000000000000000000000000000000000000000000000000000000000000000000000000000000000000000000000000000000000000000061
:405F400000E0070000E0070000F00F0000F00F0000F00F0000781F0000781F00007C3F00003C3E00003C3E00003E7C00001E7C00001FFC00000FF800000FF800800FF0017C
:405F80008007F001C007F003C007E003C003E003E003C007E0FFFF07F0FFFF0FF0FFFF0FF8FFFF1FF800001FF800001F7C00003F7C00003E7E00007E3E00007C3E00007CAE
:405FC0003F0000FC00000000000000000000000000000000000000000000000000000000000000000000000000000000000000000000000000000000000000000000000066
:406000000000000000000000000000000000000000000000E0FF1F00E0FFFF00E0FFFF03E0FFFF07E003F007E003C00FE003800FE003800FE003800FE003800FE003C007C0
:40604000E003E003E003FC01E0FFFF00E0FF3F00E0FF7F00E0FFFF01E003FE03E003F007E003C00FE003800FE003801FE003001FE003001FE003001FE003001FE003801F53
:40608000E003800FE003F00FE0FFFF07E0FFFF03E0FFFF01E0FF3F0000000000000000000000000000000000000000000000000000000000000000000000000000000000C9
:4060C0000000000000000000000000000000000000000000000000000000000000000000000000000000FF0300E0FF3F00F8FF3F00FEFF3F00FF013E803F0030C01F000002
:40610000C00F0000E0070000E0030000F0030000F0010000F0010000F8000000F8000000F8000000F8000000F8000000F8000000F8000000F8000000F8000000F001000048
:40614000F0010000F0030000E0030000E0070000C00F0000C01F0000807F002000FF013C00FEFF3F00F8FF3F00E0FF1F0000FF0100000000000000000000000000000000F8
:40618000000000000000000000000000000000000000000000000000000000000000000000000000000000000000000000000000000000000000000000000000F8FF0300E5
:4061C000F8FF1F00F8FF7F00F8FFFF00F800FE01F800F803F800E007F800C007F800C00FF800800FF800800FF800801FF800001FF800001FF800001FF800001FF800001FB6
:40620000F800001FF800001FF800001FF800001FF800800FF800800FF800800FF800C007F800C007F800E003F800F803F800FF01F8FFFF00F8FF7F00F8FF1F00F8FF0100AF
:40624000000000000000000000000000000000000000000000000000000000000000000000000000000000000000000000000000000000000000000000000000000000001E
:4062800000000000000000000000000000000000C0FFFF1FC0FFFF1FC0FFFF1FC0FFFF1FC0070000C0070000C0070000C0070000C0070000C0070000C0070000C007000032
:4062C000C0070000C0070000C0FFFF03C0FFFF03C0FFFF03C0FFFF03C0070000C0070000C0070000C0070000C0070000C0070000C0070000C0070000C0070000C007000046
:40630000C0070000C0FFFF3FC0FFFF3FC0FFFF3FC0FFFF3F0000000000000000000000000000000000000000000000000000000000000000000000000000000000000000A2
:40634000000000000000000000000000000000000000000000000000000000000000000000000000C0FFFF3FC0FFFF3FC0FFFF3FC0FFFF3FC0070000C0070000C0070000D4
:40638000C0070000C0070000C0070000C0070000C0070000C0070000C0070000C0070000C0FFFF07C0FFFF07C0FFFF07C0FFFF07C0070000C0070000C0070000C007000075
:4063C000C0070000C0070000C0070000C0070000C0070000C0070000C0070000C0070000C0070000C0070000000000000000000000000000000000000000000000000000D7
:40640000000000000000000000000000000000000000000000000000000000000000000000000000000000000000000000000000000000000080FF0100F0FF1F00FCFF1FB4
:4064400000FFFF1F80FF001FC01F0018E00F0000E0070000F0030000F0010000F8010000F8000000F80000007C0000007C0000007C0000007C0000007C0000007C00FC1FC4
:406480007C00FC1F7C00FC1F7C00FC1FF800001FF800001FF801001FF001001FF003001FE007001FE00F001FC03F001F80FF011F00FFFF1F00FCFF1F00F0FF1F0080FF001A
:4064C000000000000000000000000000000000000000000000000000000000000000000000000000000000000000000000000000000000000000000000000000000000009C
:40650000000000000000000000000000F001800FF001800FF001800FF001800FF001800FF001800FF001800FF001800FF001800FF001800FF001800FF001800FF001800FDB
:40654000F001800FF0FFFF0FF0FFFF0FF0FFFF0FF0FFFF0FF001800FF001800FF001800FF001800FF001800FF001800FF001800FF001800FF001800FF001800FF001800F27
:40658000F001800FF001800FF001800FF001800F000000000000000000000000000000000000000000000000000000000000000000000000000000000000000000000000DB
:4065C0000000000000000000000000000000000000000000000000000000000000000000F0FFFF07F0FFFF07F0FFFF07F0FFFF0700E0030000E0030000E0030000E003003B
:4066000000E0030000E0030000E0030000E0030000E0030000E0030000E0030000E0030000E0030000E0030000E0030000E0030000E0030000E0030000E0030000E003002A
:4066400000E0030000E0030000E0030000E0030000E00300F0FFFF07F0FFFF07F0FFFF07F0FFFF0700000000000000000000000000000000000000000000000000000000D7
:406680000000000000000000000000000000000000000000000000000000000000000000000000000000000000000000000000000000000000FFFF0000FFFF0000FFFF00E0
:4066C00000FFFF000000F8000000F8000000F8000000F8000000F8000000F8000000F8000000F8000000F8000000F8000000F8000000F8000000F8000000F8000000F80014
:406700000000F8000000F8000000F8000000F8000000F8000000F8000000F80000007C0000007C0000007E00C0033F00C0FF1F00C0FF1F00C0FF070000FE01000000000098
:406740000000000000000000000000000000000000000000000000000000000000000000000000000000000000000000000000000000000000000000000000000000000019
:406780000000000000000000F001C00FF001E007F001E003F001F001F001F800F0017C00F0013E00F0013F00F0011F00F0810F00F0C10700F0E10300F0F10100F0F90100EE
:4067C000F0FD0000F07D0000F0FF0000F0FD0100F0F90100F0F10300F0E10700F0C10F00F0811F00F0013F00F0017E00F001FE00F001FC01F001F803F001F007F001E00F3C
:40680000F001C01FF001803FF001007F0000000000000000000000000000000000000000000000000000000000000000000000000000000000000000000000000000000068
:4068400000000000000000000000000000000000000000000000000000000000C0070000C0070000C0070000C0070000C0070000C0070000C0070000C0070000C007000019
:40688000C0070000C0070000C0070000C0070000C0070000C0070000C0070000C0070000C0070000C0070000C0070000C0070000C0070000C0070000C0070000C007000068
:4068C000C0070000C0070000C0070000C0070000C0FFFF1FC0FFFF1FC0FFFF1FC0FFFF1F000000000000000000000000000000000000000000000000000000000000000008
:40690000000000000000000000000000000000000000000000000000000000000000000000000000000000000000000000000000FC01801FFC01C01FFC01C01FFC03C01F25
:40694000FC03E01FFC03E01FFC07E01EBC07F01EBC0FF01E3C0F701E3C0F781E3C1F781E3C1E3C1E3C1E3C1E3C3E3C1E3C3C1E1E3C3C1E1E3C7C1E1E3C780F1E3C780F1E6B
:406980003CF8071E3CF0071E3CF0071E3CF0031E3CE0031E3CE0031E3C00001E3C00001E3C00001E3C00001E3C00001E3C00001E3C00001E0000000000000000000000009F
:4069C0000000000000000000000000000000000000000000000000000000000000000000000000000000000000000000000000000000000000000000000000000000000097
:406A000000000000F001000FF003000FF003000FF007000FF007000FF00F000FF01F000FF01F000FF03F000FF07E000FF07E000FF0FC000FF0F8010FF0F8010FF0F0030FE7
:406A4000F0E0030FF0E0070FF0C00F0FF0C00F0FF0801F0FF0003F0FF0003F0FF0007E0FF0007C0FF000FC0FF000F80FF000F80FF000F00FF000E00FF000E00FF000C00F4B
:406A8000F000800FF000800F0000000000000000000000000000000000000000000000000000000000000000000000000000000000000000000000000000000000000000D8
:406AC000000000000000000000000000000000000000000000F00F0000FC3F0000FFFF0080FFFF01C01FF803E007E007E003C007F001800FF001800FF800001FF800001F5F
:406B0000F800001F7C00003E7C00003E7C00003E7C00003E7C00003E7C00003E7C00003E7C00003E7C00003E7C00003E7C00003EF800001FF800001FF800001FF001800F7B
:406B4000F001800FE003C007E007E007C01FF80380FFFF0100FFFF0000FC3F0000F00F0000000000000000000000000000000000000000000000000000000000000000008C
:406B80000000000000000000000000000000000000000000000000000000000000000000000000000000000000000000C0FF7F00C0FFFF03C0FFFF07C0FFFF0FC007E01F7E
:406BC000C007801FC007003FC007003EC007003EC007003EC007003EC007003EC007001FC007801FC007C01FC007F80FC0FFFF07C0FFFF01C0FF7F00C0FF0F00C0070000F9
:406C0000C0070000C0070000C0070000C0070000C0070000C0070000C0070000C0070000C0070000C0070000C0070000C00700000000000000000000000000000000000000
:406C400000000000000000000000000000000000000000000000000000000000000000000000000000000000000000000000000000000000000000000000000000F00F0015
:406C800000FC3F0000FFFF0080FFFF01C01FF803E007E007E003C007F001800FF001800FF800001FF800001FF800001F7C00003E7C00003E7C00003E7C00003E7C00003EE3
:406CC0007C00003E7C00003E7C00003E7C00003E7C00003E7C00003EF800001FF800001FF800001FF001800FF001800FE003C007E007E007C01FF80380FFFF0100FFFF0024
:406D000000FC3F0000F07F000000FC010000F8070000F01F0000C0FF0000807F0000007E0000003C00000030000000000000000000000000000000000000000000000000F6
:406D40000000000000000000000000000000000000000000E0FF1F00E0FF7F00E0FFFF01E0FFFF03E003F803E003E007E003C007E003C007E003C007E003C007E003C007FD
:406D8000E003E003E003F003E003F801E003FE00E0FF7F00E0FF3F00E0FF0F00E0FF0F00E0831F00E0033F00E0037F00E0037E00E003FC00E003F801E003F803E003F0034C
:406DC000E003E007E003C00FE003C01FE003801FE003003FE003007E0000000000000000000000000000000000000000000000000000000000000000000000000000000050
:406E000000000000000000000000000000000000000000000000000000000000000000000000000000F81F0000FEFF0180FFFF03C0FFFF03E00FF003E0030003F001000042
:406E4000F0010000F0010000F0010000F0010000F0030000E00F0000E03F0000C0FF000080FF070000FF3F0000FCFF0000F0FF010080FF030000FC070000F0070000C00F94
:406E80000000C00F0000800F0000800F0000800F0000800F1000C007F000E007F007F803F0FFFF01F0FFFF00C0FF3F0000FC07000000000000000000000000000000000049
:406EC000000000000000000000000000000000000000000000000000000000000000000000000000000000000000000000000000000000000000000000000000FEFFFF7F17
:406F0000FEFFFF7FFEFFFF7FFEFFFF7F00C0070000C0070000C0070000C0070000C0070000C0070000C0070000C0070000C0070000C0070000C0070000C0070000C00700C5
:406F400000C0070000C0070000C0070000C0070000C0070000C0070000C0070000C0070000C0070000C0070000C0070000C0070000C0070000C0070000C0070000C00700A1
:406F800000000000000000000000000000000000000000000000000000000000000000000000000000000000000000000000000000000000000000000000000000000000D1
:406FC00000000000000000000000000000000000F001001FF001001FF001001FF001001FF001001FF001001FF001001FF001001FF001001FF001001FF001001FF001001FD1
:40700000F001001FF001001FF001001FF001001FF001001FF001001FF001001FF001001FF001001FF001001FF001001FF001001FF001001FE003800FE003800FE007C00FE6
:40704000C00FE007C01FF00780FFFF0300FFFF0100FC7F0000F01F00000000000000000000000000000000000000000000000000000000000000000000000000000000007A
:407080000000000000000000000000000000000000000000000000000000000000000000000000003F0000F83E0000783E00007C7E00007C7C00003CFC00003EF800001E27
:4070C000F800001FF801000FF001800FF003800FE0038007E003C007E007C003C007E003C00FE001C00FF001800FF001801FF800001FF800003F7800003F7C00007E3C003D
:40710000007E3E00007C3E0000FC1F0000FC1F0000F80F0000F80F0000F0070000F0070000F0070000E00300000000000000000000000000000000000000000000000000CD
:4071400000000000000000000000000000000000000000000000000000000000000000000000000000000000000000000000000000000000000000001F0000F01F0000F0F1
:407180001F0000F01E0000781E0000781E0000781E0000783EC007783EE007783EE0073C3CE00F3C3CE00F3C3CF00F3C7CF00F3C7CF01F3C7C701F1E78781E1E78781E1EA9
:4071C00078781E1E783C3E1EF83C3C1EF83C3C0FF83C3C0FF01E7C0FF01E780FF01E780FF01E7807F01FF807F00FF007E00FF007E00FF007E00FF007E007E00300000000F7
:40720000000000000000000000000000000000000000000000000000000000000000000000000000000000000000000000000000000000000000000000000000000000004E
